:020000040000FA
:100000000C9462000C948A000C948A000C948A0070
:100010000C948A000C948A000C948A000C948A0038
:100020000C948A000C948A000C948A000C9451055C
:100030000C948A000C948A000C948A000C948A0018
:100040000C94AF040C948A000C941F050C94F904D2
:100050000C948A000C948A000C948A000C948A00F8
:100060000C948A000C948A000000000023002600F3
:10007000290000000000240027002A0000000000E2
:10008000250028002B0004040404040404040202D4
:100090000202020203030303030301020408102007
:1000A0004080010204081020010204081020000012
:1000B0000008000201000003040700000000000027
:1000C0000000520611241FBECFEFD8E0DEBFCDBF27
:1000D00011E0A0E0B1E0EAEFF5E102C005900D9279
:1000E000AC34B107D9F722E0ACE4B1E001C01D9215
:1000F000A333B207E1F710E0C2E6D0E004C02197D5
:10010000FE010E94F50AC136D107C9F70E94DB063D
:100110000C94FB0A0C940000E0911802EC3088F576
:100120004091190228E830E0241B310947FD33953E
:10013000220F331F220F331F8217930784F0409141
:100140001A0228E532E0241B310947FD3395220FBE
:10015000331F220F331F821793070CF49C01225088
:100160003109220F331F4FB7F8948E2F90E0FC0116
:10017000EE0FFF1FE80FF91FED50FE4F3283218372
:100180004FBF0895FC01538D448D252F30E0842FFF
:1001900090E0821B930B541710F0CF9608950197AF
:1001A0000895FC01918D828D981761F0A28DAE0F9C
:1001B000BF2FB11D5D968C91928D9F5F9F73928F23
:1001C00090E008958FEF9FEF0895FC01918D828D4F
:1001D000981731F0828DE80FF11D858D90E008951C
:1001E0008FEF9FEF0895FC01918D228D892F90E074
:1001F000805C9F4F821B91098F7399270895FC01A2
:10020000A48DA80FB92FB11DA35ABF4F2C91848D77
:1002100090E001968F739927848FA689B7892C93D4
:10022000A089B1898C91837080648C93938D848D27
:10023000981306C00288F389E02D80818F7D80832A
:100240000895EF92FF920F931F93CF93DF93EC01EA
:1002500081E0888F9B8D8C8D98131AC0E889F9896D
:10026000808185FF15C09FB7F894EE89FF89608370
:10027000E889F98980818370806480839FBF81E0F1
:1002800090E0DF91CF911F910F91FF90EF90089533
:10029000F62E0B8D10E00F5F1F4F0F731127E02E0E
:1002A0008C8D8E110CC00FB607FCFACFE889F98946
:1002B000808185FFF5CFCE010E94FF00F1CFEB8D4D
:1002C000EC0FFD2FF11DE35AFF4FF0829FB7F8941A
:1002D0000B8FEA89FB8980818062CFCFCF93DF9338
:1002E000EC01888D8823B9F0AA89BB89E889F9894E
:1002F0008C9185FD03C0808186FD0DC00FB607FC83
:10030000F7CF8C9185FFF2CF808185FFEDCFCE01B5
:100310000E94FF00E9CFDF91CF91089586E591E03B
:100320000E94F30021E0892B09F420E0822F089538
:1003300080E090E0892B29F00E948E0181110C94BD
:1003400000000895833081F028F4813099F08230E4
:10035000A9F008958730A9F08830C9F08430B1F44D
:10036000809180008F7D03C0809180008F77809383
:100370008000089584B58F7784BD089584B58F7DFE
:10038000FBCF8091B0008F778093B000089580916B
:10039000B0008F7DF9CF1F93CF93DF93282F30E0EC
:1003A000F901E255FF4F8491F901E656FF4FD491D0
:1003B000F901EA57FF4FC491CC23A9F0162F811100
:1003C0000E94A201EC2FF0E0EE0FFF1FE458FF4F58
:1003D000A591B4918FB7F894EC91111108C0D09504
:1003E000DE23DC938FBFDF91CF911F910895DE2B29
:1003F000F8CFCF93DF9390E0FC01E656FF4F2491B6
:100400008A579F4FFC0184918823D1F090E0880F98
:10041000991FFC01EE58FF4FA591B491FC01E458DF
:10042000FF4FC591D49161110EC09FB7F8948C9184
:10043000E22FE0958E238C932881E223E8839FBFEF
:10044000DF91CF9108958FB7F894EC91E22BEC9364
:100450008FBFF6CF1F93CF93DF93182FEB0161E08F
:100460000E94F901209739F460E0812FDF91CF914C
:100470001F910C94CB01CF3FD10511F461E0F5CF72
:10048000E12FF0E0E255FF4FE491E33031F140F429
:10049000E130B1F0E230E1F0C038D1057CF7E4CFD3
:1004A000E73029F1E83059F1E430B1F7809180006C
:1004B000806280938000D0938B00C0938A0004C038
:1004C00084B5806884BDC7BDDF91CF911F91089529
:1004D00084B5806284BDC8BDF7CF809180008068FC
:1004E00080938000D0938900C0938800EDCF8091E5
:1004F000B00080688093B000C093B300E5CF8091D6
:10050000B00080628093B000C093B400DDCF3FB7ED
:10051000F8948091520190915301A0915401B091AF
:10052000550126B5A89B05C02F3F19F00196A11DC6
:10053000B11D3FBFBA2FA92F982F8827BC01CD012D
:10054000620F711D811D911D42E0660F771F881F8C
:10055000991F4A95D1F708958F929F92AF92BF92BB
:10056000CF92DF92EF92FF924B015C010E948702D3
:100570006B017C010E9487026C197D098E099F091D
:10058000683E734081059105A8F321E0821A910825
:10059000A108B10888EEC80E83E0D81EE11CF11C4A
:1005A00081149104A104B10429F7FF90EF90DF902A
:1005B000CF90BF90AF909F908F900895AF92BF92D1
:1005C000CF92DF92EF92FF920F931F93CF93DF931F
:1005D0006C017B018B01040F151FEB015E01AE184E
:1005E000BF08C017D10759F06991D601ED91FC9170
:1005F0000190F081E02DC6010995892B79F7C5019D
:10060000DF91CF911F910F91FF90EF90DF90CF90EE
:10061000BF90AF900895089590E080E00895FB01A9
:1006200001900020E9F73197AF01461B570BDC0121
:10063000ED91FC910280F381E02D0994CF93DF933B
:10064000EBEBF0E08491E7EAF0E0D491E3E9F0E04D
:10065000C491CC2341F181110E94A201EC2FF0E062
:10066000EE0FFF1FE859FF4FA591B491EC91ED23D8
:10067000D1F086E090E0909301018093000160E268
:1006800071E086E591E00E940F036DE271E086E57E
:1006900091E00E940F0368EE73E080E090E0DF914C
:1006A000CF910C94AC02DF91CF910895CF93DF935B
:1006B000EC0160E08E810E94CB0161E08E810E949E
:1006C000CB0160E08E810E94CB018BE891E0019725
:1006D000F1F7DF91CF910895CF92DF92EF92FF92E1
:1006E0000F931F93CF93DF936C017C0187E0E80E9B
:1006F000F11CD0E0C0E0062F10E0B8010C2E02C0C3
:10070000759567950A94E2F76170F70181917F0111
:100710000E94CB012196C430D10579F7C601DF9143
:10072000CF911F910F91FF90EF90DF90CF900C949D
:100730005603CF92DF92EF92FF920F931F93CF93C6
:10074000DF93EC01F62E642F8C810E94CB018D810A
:100750008F3F19F060E00E94CB010F2D10E08F85D4
:1007600084FF25C06E0187E0C80ED11CF12CE12C5E
:10077000B8010E2C02C0759567950A94E2F7617076
:10078000F60181916F010E94CB01FFEFEF1AFF0A82
:1007900088E0E816F10461F7CE01DF91CF911F9157
:1007A0000F91FF90EF90DF90CF900C945603B8011B
:1007B00084E0759567958A95E1F7CE010E946C03F8
:1007C0006F2DCE01DF91CF911F910F91FF90EF9090
:1007D000DF90CF900C946C0340E0682F8BE192E0A7
:1007E0000C94990381E00E94EC038BE39FE1019755
:1007F000F1F70895CF93DF93823029F490912A0284
:10080000986090932A0280932E0210922F0280E427
:100810008093300280E18093310280E58093320240
:1008200061E080911F020E94F901809120028F3FB8
:1008300019F061E00E94F90161E0809121020E94BB
:10084000F901CBE1D2E09E012B51324080912A0286
:1008500084FD0BC084E090E021962817390744F40A
:1008600061E08E810E94F901EECF88E090E0F4CF44
:100870008BE39DE00197F1F760E080911F020E94F9
:10088000CB0160E0809121020E94CB018091200287
:100890008F3F19F060E00E94CB0180912A0284FD15
:1008A00034C063E08BE192E00E946C03CBE4D6E4B9
:1008B000CE010197F1F763E08BE192E00E946C03B7
:1008C0002197F1F763E08BE192E00E946C0383E5EE
:1008D00092E00197F1F762E08BE192E00E946C03F5
:1008E00080912A0280620E94EC0384E080932B02B4
:1008F0008CE00E94EC030E94F20382E080932C02C1
:1009000086E0DF91CF910C94EC0380620E94EC03AF
:100910008BE496E40197F1F780912A0280620E94AD
:10092000EC0383E592E00197F1F780912A0280625F
:100930000E94EC03D5CF90912E02891710F08FEF13
:10094000890FE82FF0E0E55EFD4F848980680C9404
:10095000EC0341E00E94990381E090E008951F922A
:100960000F920FB60F9211242F933F938F939F9363
:10097000AF93BF9380914E0190914F01A091500190
:10098000B091510130914D0123E0230F2D3758F5DF
:100990000196A11DB11D20934D0180934E019093AE
:1009A0004F01A0935001B093510180915201909159
:1009B0005301A0915401B09155010196A11DB11DA3
:1009C0008093520190935301A0935401B093550129
:1009D000BF91AF919F918F913F912F910F900FBE3B
:1009E0000F901F90189526E8230F0296A11DB11DA8
:1009F000D2CF1F920F920FB60F9211242F933F93D5
:100A00004F935F936F937F938F939F93AF93BF9316
:100A1000EF93FF9386E591E00E94FF00FF91EF9135
:100A2000BF91AF919F918F917F916F915F914F9106
:100A30003F912F910F900FBE0F901F9018951F920E
:100A40000F920FB60F9211242F938F939F93EF93D2
:100A5000FF93E0916601F09167018081E0916C0164
:100A6000F0916D0182FD1BC0908180916F018F5FBD
:100A70008F7320917001821741F0E0916F01F0E0D7
:100A8000EA5AFE4F958F80936F01FF91EF919F91EE
:100A90008F912F910F900FBE0F901F90189580810E
:100AA000F4CF1F920F920FB60F9211242F933F9302
:100AB0004F935F936F937F938F939F93AF93BF9366
:100AC000CF93DF93EF93FF9380914C01C091170276
:100AD000D0E087FF24C0109285001092840080919E
:100AE0004C018F5F80934C0180914C01082E000CCB
:100AF000990B8C179D0724F480914C018C30C4F124
:100B00008091840090918500049680349C4908F47B
:100B10007AC08091840090918500049676C080917F
:100B20004C01082E000C990B8C179D07C4F6E09120
:100B30004C018E2FEE0F990BFC01EE0FFF1FE80FFB
:100B4000F91FED50FE4F808186FFC9CFE0914C0127
:100B50008E2FEE0F990BFC01EE0FFF1FE80FF91F10
:100B6000ED50FE4F808160E08F730E94CB01B7CFC4
:100B70002091840030918500E0914C018E2FEE0F82
:100B8000990BFC01EE0FFF1FE80FF91FED50FE4F10
:100B900081819281820F931F9093890080938800B6
:100BA000E0914C018E2FEE0F990BFC01EE0FFF1F11
:100BB000E80FF91FED50FE4F808186FF11C0E091D4
:100BC0004C018E2FEE0F990BFC01EE0FFF1FE80F6B
:100BD000F91FED50FE4F808161E08F730E94CB01C1
:100BE000FF91EF91DF91CF91BF91AF919F918F9145
:100BF0007F916F915F914F913F912F910F900FBE19
:100C00000F901F90189580E49CE990938900809341
:100C100088008FEF80934C01E3CFCF92DF92EF9269
:100C2000FF920F931F93E82FF92F05C00150110970
:100C30002109310961F1908196239417B9F305C018
:100C4000015011092109310911F190819623941362
:100C5000F7CFC12CD12CE12CF12C0AC08FEFC81A90
:100C6000D80AE80AF80A0C151D052E053F0579F08B
:100C700080818623841791F36C2D7D2D8E2D9F2DE1
:100C80001F910F91FF90EF90DF90CF90089560E05B
:100C900070E080E090E01F910F91FF90EF90DF9067
:100CA000CF900895CF93109259011092580188EE79
:100CB00093E0A0E0B0E080935A0190935B01A09391
:100CC0005C01B0935D0186E091E0909357018093C1
:100CD000560185EC90E0909363018093620184EC6F
:100CE00090E0909365018093640180EC90E0909394
:100CF00067018093660181EC90E090936901809395
:100D0000680182EC90E090936B0180936A0186EC1D
:100D100090E090936D0180936C0110926F0110929E
:100D20007001109271011092720110921E021092C5
:100D30001D0288E191E090931C0280931B021092A7
:100D40001F02CFEFC093200281E08093210282E056
:100D50008093220283E08093230284E08093240224
:100D600085E08093250210922602109227021092AD
:100D700028021092290210922A0281E00E94FA03AE
:100D8000809117028C30A0F491E0980F9093170295
:100D90008093180290E0FC01EE0FFF1FE80FF91F8F
:100DA000ED50FE4F88EB9BE092838183CF910895B5
:100DB000C0931802FBCFCF93DF93CDB7DEB72A974E
:100DC0000FB6F894DEBF0FBECDBF789484B58260B5
:100DD00084BD84B5816084BD85B5826085BD85B5DF
:100DE000816085BD80916E00816080936E0010925D
:100DF00081008091810082608093810080918100D8
:100E00008160809381008091800081608093800068
:100E10008091B10084608093B1008091B0008160C6
:100E20008093B00080917A00846080937A008091F2
:100E30007A00826080937A0080917A00816080934A
:100E40007A0080917A00806880937A001092C100C5
:100E500060E08DE00E94F90161E089E00E94F90103
:100E600061E086E00E94F90161E087E00E94F901FB
:100E700061E088E00E94F90161E08AE00E94F901E6
:100E800060E08BE00E94F90161E08CE00E94F901D2
:100E9000809118028C3008F051C061E08CE00E9413
:100EA000F90180911802282F30E0F901EE0FFF1FA1
:100EB000E20FF31FED50FE4F9081907C9C60908379
:100EC0001092190210921A022CE0622F0E94C10A9D
:100ED000829FB001112430E020E0AB01420F531F8C
:100EE000FA01EE0FFF1FE40FF51FED50FE4F90814A
:100EF00096FD16C02F5F3F4F2C30310571F78111E1
:100F00000FC01092800082E08093810010928500D3
:100F100010928400B19A80916F00826080936F007C
:100F2000E09118028E2F90E0FC01EE0FFF1FE80FFA
:100F3000F91FED50FE4F80818064808382E00E9423
:100F4000FA03B3E08B2E912C14EB412E512C612C23
:100F5000712CE8E8CE2ED12CF8E5AF2EF2E0BF2EB2
:100F6000A0E02A2EA0E03A2E80910001909101018C
:100F7000181619060CF041C160E08AE00E94CB010E
:100F8000C4010197F1F761E08AE00E94CB0183E29E
:100F900090E00197F1F760E08AE00E94CB01E5EA7A
:100FA000F0E06491E1E9F0E08491E82FF0E0EE0FE9
:100FB000FF1FE859FF4F8591949100E412E42FE060
:100FC00030E0462F0E940D066115710581059105DF
:100FD00029F06F5F7F4F8F4F9F4F9F700E94C8090E
:100FE00028E23EE74CE05DE30E942C0A20E030E07E
:100FF00040E05FE30E942C0A0E9490096A3071056C
:10100000810591050CF07EC0809100019091010155
:10101000181619060CF070C0019790930101809387
:10102000000103E010E061E089E00E94CB0164E68A
:1010300070E080E090E00E94AC0260E089E00E94F5
:10104000CB0164E670E080E090E00E94AC020150C9
:10105000110949F7809119027601E81AF10887FD14
:10106000F394EE0CFF1CEE0CFF1C0F2C000C000B7D
:10107000110B80911A029501281B310987FD3395C8
:10108000220F331F220F331F032E000C440B550B6E
:101090002E193F09400B510BAAE5B0E00E945409FC
:1010A000A30192010E943509DA01C9018E0D9F1D2D
:1010B000A01FB11F0E948C0068EE73E080E090E0FA
:1010C0000E94AC0260ED77E080E090E00E94AC020C
:1010D000809119029601281B310987FD3395C901BA
:1010E000880F991F880F991F0E948C0068EE73E08B
:1010F00080E090E00E94AC0268EE73E080E090E057
:101100000E94AC0230E430937C0080917A008064CD
:1011100080937A0080917A0086FDFCCF80917800E0
:101120009091790065E571E00E94CD0A8B01F12C68
:10113000E12C6FEF70E00115110551F00130110540
:1011400001F1EE24EA94F12C10E000E070E060E0A0
:1011500086E00E942A02B80187E00E942A02B701B5
:1011600088E00E942A020E94F2038091000190917F
:101170000101892B59F480E00E949B0460E371E037
:101180001EC0F12CE12C0FEF10E0E0CF80E00E94B8
:101190009B046DE371E08BE192E00E940F034AE053
:1011A000BE016F5F7F4F80910001909101010E940D
:1011B000000981E00E949B04BE016F5F7F4F8BE1BD
:1011C00092E00E940F0364EF71E080E090E00E94E3
:1011D000AC020E941E0364E670E080E090E00E9492
:1011E000AC022114310409F4BFCE0E948E01882381
:1011F00009F4AFCE0E940000ACCE0E94F203BBCF38
:10120000BB274A3031F4992322F4BDE290958195B1
:101210009F4F0C940C09BB27FB015527AA27880F69
:10122000991FAA1FA41710F0A41B83955051B9F75A
:10123000A05DAA3308F0A95DA193009779F7B111D9
:10124000B1931192CB010C942509DC01FC01672FAD
:1012500071917723E1F7329704C07C916D9370838D
:101260006291AE17BF07C8F30895052E97FB1EF4D1
:1012700000940E944C0957FD07D00E945F0907FCAB
:1012800003D04EF40C944C0950954095309521951F
:101290003F4F4F4F5F4F08959095809570956195A2
:1012A0007F4F8F4F9F4F08950E948109A59F900DFA
:1012B000B49F900DA49F800D911D11240895A1E26B
:1012C0001A2EAA1BBB1BFD010DC0AA1FBB1FEE1FC0
:1012D000FF1FA217B307E407F50720F0A21BB30B0B
:1012E000E40BF50B661F771F881F991F1A9469F787
:1012F00060957095809590959B01AC01BD01CF01E3
:101300000895A29FB001B39FC001A39F700D811DDE
:101310001124911DB29F700D811D1124911D0895FE
:101320000E9497096894B1110C94260A08950E94AE
:101330000B0A88F09F5798F0B92F9927B751B0F052
:10134000E1F0660F771F881F991F1AF0BA95C9F749
:1013500014C0B13091F00E94250AB1E008950C94B8
:10136000250A672F782F8827B85F39F0B93FCCF36B
:10137000869577956795B395D9F73EF490958095C6
:10138000709561957F4F8F4F9F4F0895E89409C0E6
:1013900097FB3EF490958095709561957F4F8F4FA8
:1013A0009F4F9923A9F0F92F96E9BB279395F695BE
:1013B000879577956795B795F111F8CFFAF4BB0F3C
:1013C00011F460FF1BC06F5F7F4F8F4F9F4F16C0A0
:1013D000882311F096E911C0772321F09EE8872F2A
:1013E000762F05C0662371F096E8862F70E060E0E6
:1013F0002AF09A95660F771F881FDAF7880F96955F
:10140000879597F9089557FD9058440F551F59F047
:101410005F3F71F04795880F97FB991F61F09F3FE1
:1014200079F087950895121613061406551FF2CF0A
:101430004695F1DF08C0161617061806991FF1CF5A
:1014400086957105610508940895E894BB27662781
:101450007727CB0197F908950E943F0A0C94B00AB0
:101460000E94A20A38F00E94A90A20F0952311F0E8
:101470000C94990A0C949F0A11240C94260A0E9439
:10148000030A70F3959FC1F3950F50E0551F629FBB
:10149000F001729FBB27F00DB11D639FAA27F00DCD
:1014A000B11DAA1F649F6627B00DA11D661F829FF4
:1014B0002227B00DA11D621F739FB00DA11D621FD9
:1014C000839FA00D611D221F749F3327A00D611DF6
:1014D000231F849F600D211D822F762F6A2F1124D8
:1014E0009F5750409AF0F1F088234AF0EE0FFF1F0B
:1014F000BB1F661F771F881F91505040A9F79E3F62
:10150000510580F00C94990A0C94260A5F3FE4F38D
:10151000983ED4F3869577956795B795F795E795B7
:101520009F5FC1F7FE2B880F911D9695879597F9C0
:10153000089597F99F6780E870E060E008959FEF55
:1015400080EC089500240A9416161706180609065A
:10155000089500240A941216130614060506089529
:10156000092E0394000C11F4882352F0BB0F40F4B1
:10157000BF2B11F460FF04C06F5F7F4F8F4F9F4FF1
:101580000895991B79E004C0991F961708F0961BDF
:10159000881F7A95C9F78095089597FB072E16F452
:1015A000009407D077FD09D00E94E10A07FC05D01E
:1015B0003EF4909581959F4F0895709561957F4F6A
:1015C0000895AA1BBB1B51E107C0AA1FBB1FA6178A
:1015D000B70710F0A61BB70B881F991F5A95A9F7DC
:1015E00080959095BC01CD010895EE0FFF1F0590E9
:1015F000F491E02D0994F894FFCF0600000000005C
:101600002101DE02C2006E01F300D100E5000000FE
:101610000000A904DE020C030B0353797374656D9B
:10162000205265736574000D0A005061726B696E1B
:10163000672046756C6C00566163616E7420537050
:061640006F743A20000067
:107E0000112484B714BE81FFF0D085E080938100F7
:107E100082E08093C00088E18093C10086E0809377
:107E2000C20080E18093C4008EE0C9D0259A86E02C
:107E300020E33CEF91E0309385002093840096BBD3
:107E4000B09BFECF1D9AA8958150A9F7CC24DD24C4
:107E500088248394B5E0AB2EA1E19A2EF3E0BF2EE7
:107E6000A2D0813461F49FD0082FAFD0023811F036
:107E7000013811F484E001C083E08DD089C08234E0
:107E800011F484E103C0853419F485E0A6D080C0E4
:107E9000853579F488D0E82EFF2485D0082F10E0AE
:107EA000102F00270E291F29000F111F8ED06801E7
:107EB0006FC0863521F484E090D080E0DECF843638
:107EC00009F040C070D06FD0082F6DD080E0C81688
:107ED00080E7D80618F4F601B7BEE895C0E0D1E017
:107EE00062D089930C17E1F7F0E0CF16F0E7DF06D8
:107EF00018F0F601B7BEE89568D007B600FCFDCFD4
:107F0000A601A0E0B1E02C9130E011968C91119780
:107F100090E0982F8827822B932B1296FA010C0160
:107F200087BEE89511244E5F5F4FF1E0A038BF0790
:107F300051F7F601A7BEE89507B600FCFDCF97BE46
:107F4000E89526C08437B1F42ED02DD0F82E2BD052
:107F50003CD0F601EF2C8F010F5F1F4F84911BD097
:107F6000EA94F801C1F70894C11CD11CFA94CF0C13
:107F7000D11C0EC0853739F428D08EE10CD085E9AC
:107F80000AD08FE07ACF813511F488E018D01DD067
:107F900080E101D065CF982F8091C00085FFFCCF94
:107FA0009093C60008958091C00087FFFCCF809118
:107FB000C00084FD01C0A8958091C6000895E0E648
:107FC000F0E098E1908380830895EDDF803219F02E
:107FD00088E0F5DFFFCF84E1DECF1F93182FE3DFCA
:107FE0001150E9F7F2DF1F91089580E0E8DFEE27F6
:047FF000FF270994CA
:027FFE00040479
:00000001FF
